{
  "_format": "hh-sol-artifact-1",
  "contractName": "MyNftsCollection",
  "sourceName": "contracts/MyNftsCollection.sol",
  "abi": [
    {
      "inputs": [
        {
          "internalType": "string[]",
          "name": "characterNames",
          "type": "string[]"
        },
        {
          "internalType": "string[]",
          "name": "characterImageURIs",
          "type": "string[]"
        }
      ],
      "stateMutability": "nonpayable",
      "type": "constructor"
    },
    {
      "anonymous": false,
      "inputs": [
        {
          "indexed": true,
          "internalType": "address",
          "name": "owner",
          "type": "address"
        },
        {
          "indexed": true,
          "internalType": "address",
          "name": "approved",
          "type": "address"
        },
        {
          "indexed": true,
          "internalType": "uint256",
          "name": "tokenId",
          "type": "uint256"
        }
      ],
      "name": "Approval",
      "type": "event"
    },
    {
      "anonymous": false,
      "inputs": [
        {
          "indexed": true,
          "internalType": "address",
          "name": "owner",
          "type": "address"
        },
        {
          "indexed": true,
          "internalType": "address",
          "name": "operator",
          "type": "address"
        },
        {
          "indexed": false,
          "internalType": "bool",
          "name": "approved",
          "type": "bool"
        }
      ],
      "name": "ApprovalForAll",
      "type": "event"
    },
    {
      "anonymous": false,
      "inputs": [
        {
          "indexed": true,
          "internalType": "address",
          "name": "from",
          "type": "address"
        },
        {
          "indexed": true,
          "internalType": "address",
          "name": "to",
          "type": "address"
        },
        {
          "indexed": true,
          "internalType": "uint256",
          "name": "tokenId",
          "type": "uint256"
        }
      ],
      "name": "Transfer",
      "type": "event"
    },
    {
      "inputs": [
        {
          "internalType": "address",
          "name": "to",
          "type": "address"
        },
        {
          "internalType": "uint256",
          "name": "tokenId",
          "type": "uint256"
        }
      ],
      "name": "approve",
      "outputs": [],
      "stateMutability": "nonpayable",
      "type": "function"
    },
    {
      "inputs": [
        {
          "internalType": "address",
          "name": "owner",
          "type": "address"
        }
      ],
      "name": "balanceOf",
      "outputs": [
        {
          "internalType": "uint256",
          "name": "",
          "type": "uint256"
        }
      ],
      "stateMutability": "view",
      "type": "function"
    },
    {
      "inputs": [
        {
          "internalType": "uint256",
          "name": "tokenId",
          "type": "uint256"
        }
      ],
      "name": "getApproved",
      "outputs": [
        {
          "internalType": "address",
          "name": "",
          "type": "address"
        }
      ],
      "stateMutability": "view",
      "type": "function"
    },
    {
      "inputs": [
        {
          "internalType": "address",
          "name": "owner",
          "type": "address"
        },
        {
          "internalType": "address",
          "name": "operator",
          "type": "address"
        }
      ],
      "name": "isApprovedForAll",
      "outputs": [
        {
          "internalType": "bool",
          "name": "",
          "type": "bool"
        }
      ],
      "stateMutability": "view",
      "type": "function"
    },
    {
      "inputs": [
        {
          "internalType": "uint256",
          "name": "_characterIndex",
          "type": "uint256"
        }
      ],
      "name": "mintCharacterNFT",
      "outputs": [],
      "stateMutability": "nonpayable",
      "type": "function"
    },
    {
      "inputs": [],
      "name": "name",
      "outputs": [
        {
          "internalType": "string",
          "name": "",
          "type": "string"
        }
      ],
      "stateMutability": "view",
      "type": "function"
    },
    {
      "inputs": [
        {
          "internalType": "uint256",
          "name": "",
          "type": "uint256"
        }
      ],
      "name": "nftHolderAttributes",
      "outputs": [
        {
          "internalType": "uint256",
          "name": "characterIndex",
          "type": "uint256"
        },
        {
          "internalType": "string",
          "name": "name",
          "type": "string"
        },
        {
          "internalType": "string",
          "name": "imageURI",
          "type": "string"
        }
      ],
      "stateMutability": "view",
      "type": "function"
    },
    {
      "inputs": [
        {
          "internalType": "address",
          "name": "",
          "type": "address"
        }
      ],
      "name": "nftHolders",
      "outputs": [
        {
          "internalType": "uint256",
          "name": "",
          "type": "uint256"
        }
      ],
      "stateMutability": "view",
      "type": "function"
    },
    {
      "inputs": [
        {
          "internalType": "uint256",
          "name": "tokenId",
          "type": "uint256"
        }
      ],
      "name": "ownerOf",
      "outputs": [
        {
          "internalType": "address",
          "name": "",
          "type": "address"
        }
      ],
      "stateMutability": "view",
      "type": "function"
    },
    {
      "inputs": [
        {
          "internalType": "address",
          "name": "from",
          "type": "address"
        },
        {
          "internalType": "address",
          "name": "to",
          "type": "address"
        },
        {
          "internalType": "uint256",
          "name": "tokenId",
          "type": "uint256"
        }
      ],
      "name": "safeTransferFrom",
      "outputs": [],
      "stateMutability": "nonpayable",
      "type": "function"
    },
    {
      "inputs": [
        {
          "internalType": "address",
          "name": "from",
          "type": "address"
        },
        {
          "internalType": "address",
          "name": "to",
          "type": "address"
        },
        {
          "internalType": "uint256",
          "name": "tokenId",
          "type": "uint256"
        },
        {
          "internalType": "bytes",
          "name": "_data",
          "type": "bytes"
        }
      ],
      "name": "safeTransferFrom",
      "outputs": [],
      "stateMutability": "nonpayable",
      "type": "function"
    },
    {
      "inputs": [
        {
          "internalType": "address",
          "name": "operator",
          "type": "address"
        },
        {
          "internalType": "bool",
          "name": "approved",
          "type": "bool"
        }
      ],
      "name": "setApprovalForAll",
      "outputs": [],
      "stateMutability": "nonpayable",
      "type": "function"
    },
    {
      "inputs": [
        {
          "internalType": "bytes4",
          "name": "interfaceId",
          "type": "bytes4"
        }
      ],
      "name": "supportsInterface",
      "outputs": [
        {
          "internalType": "bool",
          "name": "",
          "type": "bool"
        }
      ],
      "stateMutability": "view",
      "type": "function"
    },
    {
      "inputs": [],
      "name": "symbol",
      "outputs": [
        {
          "internalType": "string",
          "name": "",
          "type": "string"
        }
      ],
      "stateMutability": "view",
      "type": "function"
    },
    {
      "inputs": [
        {
          "internalType": "uint256",
          "name": "_tokenId",
          "type": "uint256"
        }
      ],
      "name": "tokenURI",
      "outputs": [
        {
          "internalType": "string",
          "name": "",
          "type": "string"
        }
      ],
      "stateMutability": "view",
      "type": "function"
    },
    {
      "inputs": [
        {
          "internalType": "address",
          "name": "from",
          "type": "address"
        },
        {
          "internalType": "address",
          "name": "to",
          "type": "address"
        },
        {
          "internalType": "uint256",
          "name": "tokenId",
          "type": "uint256"
        }
      ],
      "name": "transferFrom",
      "outputs": [],
      "stateMutability": "nonpayable",
      "type": "function"
    }
  ],
  "bytecode": "0x60806040523480156200001157600080fd5b5060405162003df438038062003df48339818101604052810190620000379190620006b5565b6040518060400160405280600581526020017f526f626f730000000000000000000000000000000000000000000000000000008152506040518060400160405280600481526020017f524f424f000000000000000000000000000000000000000000000000000000008152508160009080519060200190620000bb92919062000501565b508060019080519060200190620000d492919062000501565b50505060005b8251811015620003f9576007604051806060016040528083815260200185848151811062000131577f4e487b7100000000000000000000000000000000000000000000000000000000600052603260045260246000fd5b6020026020010151815260200184848151811062000178577f4e487b7100000000000000000000000000000000000000000000000000000000600052603260045260246000fd5b60200260200101518152509080600181540180825580915050600190039060005260206000209060030201600090919091909150600082015181600001556020820151816001019080519060200190620001d492919062000501565b506040820151816002019080519060200190620001f392919062000501565b50505060006007828154811062000233577f4e487b7100000000000000000000000000000000000000000000000000000000600052603260045260246000fd5b906000526020600020906003020160405180606001604052908160008201548152602001600182018054620002689062000902565b80601f0160208091040260200160405190810160405280929190818152602001828054620002969062000902565b8015620002e75780601f10620002bb57610100808354040283529160200191620002e7565b820191906000526020600020905b815481529060010190602001808311620002c957829003601f168201915b50505050508152602001600282018054620003029062000902565b80601f0160208091040260200160405190810160405280929190818152602001828054620003309062000902565b8015620003815780601f10620003555761010080835404028352916020019162000381565b820191906000526020600020905b8154815290600101906020018083116200036357829003601f168201915b5050505050815250509050620003e16040518060400160405280601d81526020017f446f6e6520696e697469616c697a696e67202573202c20696d67202573000000815250826020015183604001516200041960201b62000fbf1760201c565b50600181620003f1919062000865565b9050620000da565b50620004116006620004c260201b6200105e1760201c565b505062000a0c565b620004bd838383604051602401620004349392919062000769565b6040516020818303038152906040527f2ced7cef000000000000000000000000000000000000000000000000000000007bffffffffffffffffffffffffffffffffffffffffffffffffffffffff19166020820180517bffffffffffffffffffffffffffffffffffffffffffffffffffffffff8381831617835250505050620004d860201b60201c565b505050565b6001816000016000828254019250508190555050565b60008151905060006a636f6e736f6c652e6c6f679050602083016000808483855afa5050505050565b8280546200050f9062000902565b90600052602060002090601f0160209004810192826200053357600085556200057f565b82601f106200054e57805160ff19168380011785556200057f565b828001600101855582156200057f579182015b828111156200057e57825182559160200191906001019062000561565b5b5090506200058e919062000592565b5090565b5b80821115620005ad57600081600090555060010162000593565b5090565b6000620005c8620005c284620007e4565b620007bb565b9050808382526020820190508260005b858110156200060c5781518501620005f1888262000688565b845260208401935060208301925050600181019050620005d8565b5050509392505050565b60006200062d620006278462000813565b620007bb565b9050828152602081018484840111156200064657600080fd5b62000653848285620008cc565b509392505050565b600082601f8301126200066d57600080fd5b81516200067f848260208601620005b1565b91505092915050565b600082601f8301126200069a57600080fd5b8151620006ac84826020860162000616565b91505092915050565b60008060408385031215620006c957600080fd5b600083015167ffffffffffffffff811115620006e457600080fd5b620006f2858286016200065b565b925050602083015167ffffffffffffffff8111156200071057600080fd5b6200071e858286016200065b565b9150509250929050565b6000620007358262000849565b62000741818562000854565b935062000753818560208601620008cc565b6200075e81620009fb565b840191505092915050565b6000606082019050818103600083015262000785818662000728565b905081810360208301526200079b818562000728565b90508181036040830152620007b1818462000728565b9050949350505050565b6000620007c7620007da565b9050620007d5828262000938565b919050565b6000604051905090565b600067ffffffffffffffff821115620008025762000801620009cc565b5b602082029050602081019050919050565b600067ffffffffffffffff821115620008315762000830620009cc565b5b6200083c82620009fb565b9050602081019050919050565b600081519050919050565b600082825260208201905092915050565b60006200087282620008c2565b91506200087f83620008c2565b9250827fffffffffffffffffffffffffffffffffffffffffffffffffffffffffffffffff03821115620008b757620008b66200096e565b5b828201905092915050565b6000819050919050565b60005b83811015620008ec578082015181840152602081019050620008cf565b83811115620008fc576000848401525b50505050565b600060028204905060018216806200091b57607f821691505b602082108114156200093257620009316200099d565b5b50919050565b6200094382620009fb565b810181811067ffffffffffffffff82111715620009655762000964620009cc565b5b80604052505050565b7f4e487b7100000000000000000000000000000000000000000000000000000000600052601160045260246000fd5b7f4e487b7100000000000000000000000000000000000000000000000000000000600052602260045260246000fd5b7f4e487b7100000000000000000000000000000000000000000000000000000000600052604160045260246000fd5b6000601f19601f8301169050919050565b6133d88062000a1c6000396000f3fe608060405234801561001057600080fd5b50600436106101005760003560e01c80637df124a111610097578063b88d4fde11610066578063b88d4fde146102d3578063c87b56dd146102ef578063e985e9c51461031f578063f8b81ef71461034f57610100565b80637df124a11461023757806395d89b411461026757806398da4c9514610285578063a22cb465146102b757610100565b806323b872dd116100d357806323b872dd1461019f57806342842e0e146101bb5780636352211e146101d757806370a082311461020757610100565b806301ffc9a71461010557806306fdde0314610135578063081812fc14610153578063095ea7b314610183575b600080fd5b61011f600480360381019061011a919061228c565b61036b565b60405161012c9190612733565b60405180910390f35b61013d61044d565b60405161014a919061274e565b60405180910390f35b61016d600480360381019061016891906122de565b6104df565b60405161017a91906126cc565b60405180910390f35b61019d60048036038101906101989190612250565b610564565b005b6101b960048036038101906101b4919061214a565b61067c565b005b6101d560048036038101906101d0919061214a565b6106dc565b005b6101f160048036038101906101ec91906122de565b6106fc565b6040516101fe91906126cc565b60405180910390f35b610221600480360381019061021c91906120e5565b6107ae565b60405161022e919061299a565b60405180910390f35b610251600480360381019061024c91906120e5565b610866565b60405161025e919061299a565b60405180910390f35b61026f61087e565b60405161027c919061274e565b60405180910390f35b61029f600480360381019061029a91906122de565b610910565b6040516102ae939291906129b5565b60405180910390f35b6102d160048036038101906102cc9190612214565b610a4a565b005b6102ed60048036038101906102e89190612199565b610a60565b005b610309600480360381019061030491906122de565b610ac2565b604051610316919061274e565b60405180910390f35b6103396004803603810190610334919061210e565b610c83565b6040516103469190612733565b60405180910390f35b610369600480360381019061036491906122de565b610d17565b005b60007f80ac58cd000000000000000000000000000000000000000000000000000000007bffffffffffffffffffffffffffffffffffffffffffffffffffffffff1916827bffffffffffffffffffffffffffffffffffffffffffffffffffffffff1916148061043657507f5b5e139f000000000000000000000000000000000000000000000000000000007bffffffffffffffffffffffffffffffffffffffffffffffffffffffff1916827bffffffffffffffffffffffffffffffffffffffffffffffffffffffff1916145b80610446575061044582611074565b5b9050919050565b60606000805461045c90612c5e565b80601f016020809104026020016040519081016040528092919081815260200182805461048890612c5e565b80156104d55780601f106104aa576101008083540402835291602001916104d5565b820191906000526020600020905b8154815290600101906020018083116104b857829003601f168201915b5050505050905090565b60006104ea826110de565b610529576040517f08c379a00000000000000000000000000000000000000000000000000000000081526004016105209061293a565b60405180910390fd5b6004600083815260200190815260200160002060009054906101000a900473ffffffffffffffffffffffffffffffffffffffff169050919050565b600061056f826106fc565b90508073ffffffffffffffffffffffffffffffffffffffff168373ffffffffffffffffffffffffffffffffffffffff1614156105e0576040517f08c379a00000000000000000000000000000000000000000000000000000000081526004016105d79061295a565b60405180910390fd5b8073ffffffffffffffffffffffffffffffffffffffff166105ff61114a565b73ffffffffffffffffffffffffffffffffffffffff16148061062e575061062d8161062861114a565b610c83565b5b61066d576040517f08c379a0000000000000000000000000000000000000000000000000000000008152600401610664906128ba565b60405180910390fd5b6106778383611152565b505050565b61068d61068761114a565b8261120b565b6106cc576040517f08c379a00000000000000000000000000000000000000000000000000000000081526004016106c39061297a565b60405180910390fd5b6106d78383836112e9565b505050565b6106f783838360405180602001604052806000815250610a60565b505050565b6000806002600084815260200190815260200160002060009054906101000a900473ffffffffffffffffffffffffffffffffffffffff169050600073ffffffffffffffffffffffffffffffffffffffff168173ffffffffffffffffffffffffffffffffffffffff1614156107a5576040517f08c379a000000000000000000000000000000000000000000000000000000000815260040161079c906128fa565b60405180910390fd5b80915050919050565b60008073ffffffffffffffffffffffffffffffffffffffff168273ffffffffffffffffffffffffffffffffffffffff16141561081f576040517f08c379a0000000000000000000000000000000000000000000000000000000008152600401610816906128da565b60405180910390fd5b600360008373ffffffffffffffffffffffffffffffffffffffff1673ffffffffffffffffffffffffffffffffffffffff168152602001908152602001600020549050919050565b60096020528060005260406000206000915090505481565b60606001805461088d90612c5e565b80601f01602080910402602001604051908101604052809291908181526020018280546108b990612c5e565b80156109065780601f106108db57610100808354040283529160200191610906565b820191906000526020600020905b8154815290600101906020018083116108e957829003601f168201915b5050505050905090565b600860205280600052604060002060009150905080600001549080600101805461093990612c5e565b80601f016020809104026020016040519081016040528092919081815260200182805461096590612c5e565b80156109b25780601f10610987576101008083540402835291602001916109b2565b820191906000526020600020905b81548152906001019060200180831161099557829003601f168201915b5050505050908060020180546109c790612c5e565b80601f01602080910402602001604051908101604052809291908181526020018280546109f390612c5e565b8015610a405780601f10610a1557610100808354040283529160200191610a40565b820191906000526020600020905b815481529060010190602001808311610a2357829003601f168201915b5050505050905083565b610a5c610a5561114a565b8383611550565b5050565b610a71610a6b61114a565b8361120b565b610ab0576040517f08c379a0000000000000000000000000000000000000000000000000000000008152600401610aa79061297a565b60405180910390fd5b610abc848484846116bd565b50505050565b606060006008600084815260200190815260200160002060405180606001604052908160008201548152602001600182018054610afe90612c5e565b80601f0160208091040260200160405190810160405280929190818152602001828054610b2a90612c5e565b8015610b775780601f10610b4c57610100808354040283529160200191610b77565b820191906000526020600020905b815481529060010190602001808311610b5a57829003601f168201915b50505050508152602001600282018054610b9090612c5e565b80601f0160208091040260200160405190810160405280929190818152602001828054610bbc90612c5e565b8015610c095780601f10610bde57610100808354040283529160200191610c09565b820191906000526020600020905b815481529060010190602001808311610bec57829003601f168201915b50505050508152505090506000610c528260200151610c2786611719565b8460400151604051602001610c3e9392919061264d565b6040516020818303038152906040526118c6565b9050600081604051602001610c6791906126aa565b6040516020818303038152906040529050809350505050919050565b6000600560008473ffffffffffffffffffffffffffffffffffffffff1673ffffffffffffffffffffffffffffffffffffffff16815260200190815260200160002060008373ffffffffffffffffffffffffffffffffffffffff1673ffffffffffffffffffffffffffffffffffffffff16815260200190815260200160002060009054906101000a900460ff16905092915050565b6000610d236006611a84565b9050610d2f3382611a92565b604051806060016040528083815260200160078481548110610d7a577f4e487b7100000000000000000000000000000000000000000000000000000000600052603260045260246000fd5b90600052602060002090600302016001018054610d9690612c5e565b80601f0160208091040260200160405190810160405280929190818152602001828054610dc290612c5e565b8015610e0f5780601f10610de457610100808354040283529160200191610e0f565b820191906000526020600020905b815481529060010190602001808311610df257829003601f168201915b5050505050815260200160078481548110610e53577f4e487b7100000000000000000000000000000000000000000000000000000000600052603260045260246000fd5b90600052602060002090600302016002018054610e6f90612c5e565b80601f0160208091040260200160405190810160405280929190818152602001828054610e9b90612c5e565b8015610ee85780601f10610ebd57610100808354040283529160200191610ee8565b820191906000526020600020905b815481529060010190602001808311610ecb57829003601f168201915b505050505081525060086000838152602001908152602001600020600082015181600001556020820151816001019080519060200190610f29929190611f71565b506040820151816002019080519060200190610f46929190611f71565b50905050610f6d6040518060600160405280602e8152602001613375602e91398284611ab0565b80600960003373ffffffffffffffffffffffffffffffffffffffff1673ffffffffffffffffffffffffffffffffffffffff16815260200190815260200160002081905550610fbb600661105e565b5050565b611059838383604051602401610fd793929190612770565b6040516020818303038152906040527f2ced7cef000000000000000000000000000000000000000000000000000000007bffffffffffffffffffffffffffffffffffffffffffffffffffffffff19166020820180517bffffffffffffffffffffffffffffffffffffffffffffffffffffffff8381831617835250505050611b4f565b505050565b6001816000016000828254019250508190555050565b60007f01ffc9a7000000000000000000000000000000000000000000000000000000007bffffffffffffffffffffffffffffffffffffffffffffffffffffffff1916827bffffffffffffffffffffffffffffffffffffffffffffffffffffffff1916149050919050565b60008073ffffffffffffffffffffffffffffffffffffffff166002600084815260200190815260200160002060009054906101000a900473ffffffffffffffffffffffffffffffffffffffff1673ffffffffffffffffffffffffffffffffffffffff1614159050919050565b600033905090565b816004600083815260200190815260200160002060006101000a81548173ffffffffffffffffffffffffffffffffffffffff021916908373ffffffffffffffffffffffffffffffffffffffff160217905550808273ffffffffffffffffffffffffffffffffffffffff166111c5836106fc565b73ffffffffffffffffffffffffffffffffffffffff167f8c5be1e5ebec7d5bd14f71427d1e84f3dd0314c0f7b2291e5b200ac8c7c3b92560405160405180910390a45050565b6000611216826110de565b611255576040517f08c379a000000000000000000000000000000000000000000000000000000000815260040161124c9061289a565b60405180910390fd5b6000611260836106fc565b90508073ffffffffffffffffffffffffffffffffffffffff168473ffffffffffffffffffffffffffffffffffffffff1614806112cf57508373ffffffffffffffffffffffffffffffffffffffff166112b7846104df565b73ffffffffffffffffffffffffffffffffffffffff16145b806112e057506112df8185610c83565b5b91505092915050565b8273ffffffffffffffffffffffffffffffffffffffff16611309826106fc565b73ffffffffffffffffffffffffffffffffffffffff161461135f576040517f08c379a00000000000000000000000000000000000000000000000000000000081526004016113569061281a565b60405180910390fd5b600073ffffffffffffffffffffffffffffffffffffffff168273ffffffffffffffffffffffffffffffffffffffff1614156113cf576040517f08c379a00000000000000000000000000000000000000000000000000000000081526004016113c69061285a565b60405180910390fd5b6113da838383611b78565b6113e5600082611152565b6001600360008573ffffffffffffffffffffffffffffffffffffffff1673ffffffffffffffffffffffffffffffffffffffff16815260200190815260200160002060008282546114359190612b74565b925050819055506001600360008473ffffffffffffffffffffffffffffffffffffffff1673ffffffffffffffffffffffffffffffffffffffff168152602001908152602001600020600082825461148c9190612a93565b92505081905550816002600083815260200190815260200160002060006101000a81548173ffffffffffffffffffffffffffffffffffffffff021916908373ffffffffffffffffffffffffffffffffffffffff160217905550808273ffffffffffffffffffffffffffffffffffffffff168473ffffffffffffffffffffffffffffffffffffffff167fddf252ad1be2c89b69c2b068fc378daa952ba7f163c4a11628f55a4df523b3ef60405160405180910390a461154b838383611b7d565b505050565b8173ffffffffffffffffffffffffffffffffffffffff168373ffffffffffffffffffffffffffffffffffffffff1614156115bf576040517f08c379a00000000000000000000000000000000000000000000000000000000081526004016115b69061287a565b60405180910390fd5b80600560008573ffffffffffffffffffffffffffffffffffffffff1673ffffffffffffffffffffffffffffffffffffffff16815260200190815260200160002060008473ffffffffffffffffffffffffffffffffffffffff1673ffffffffffffffffffffffffffffffffffffffff16815260200190815260200160002060006101000a81548160ff0219169083151502179055508173ffffffffffffffffffffffffffffffffffffffff168373ffffffffffffffffffffffffffffffffffffffff167f17307eab39ab6107e8899845ad3d59bd9653f200f220920489ca2b5937696c31836040516116b09190612733565b60405180910390a3505050565b6116c88484846112e9565b6116d484848484611b82565b611713576040517f08c379a000000000000000000000000000000000000000000000000000000000815260040161170a906127fa565b60405180910390fd5b50505050565b60606000821415611761576040518060400160405280600181526020017f300000000000000000000000000000000000000000000000000000000000000081525090506118c1565b600082905060005b6000821461179357808061177c90612cc1565b915050600a8261178c9190612ae9565b9150611769565b60008167ffffffffffffffff8111156117d5577f4e487b7100000000000000000000000000000000000000000000000000000000600052604160045260246000fd5b6040519080825280601f01601f1916602001820160405280156118075781602001600182028036833780820191505090505b5090505b600085146118ba576001826118209190612b74565b9150600a8561182f9190612d0a565b603061183b9190612a93565b60f81b818381518110611877577f4e487b7100000000000000000000000000000000000000000000000000000000600052603260045260246000fd5b60200101907effffffffffffffffffffffffffffffffffffffffffffffffffffffffffffff1916908160001a905350600a856118b39190612ae9565b945061180b565b8093505050505b919050565b606060008251905060008114156118ef5760405180602001604052806000815250915050611a7f565b600060036002836119009190612a93565b61190a9190612ae9565b60046119169190612b1a565b905060006020826119279190612a93565b67ffffffffffffffff811115611966577f4e487b7100000000000000000000000000000000000000000000000000000000600052604160045260246000fd5b6040519080825280601f01601f1916602001820160405280156119985781602001600182028036833780820191505090505b5090506000604051806060016040528060408152602001613335604091399050600181016020830160005b86811015611a3c5760038101905062ffffff818a015116603f8160121c168401518060081b905060ff603f83600c1c1686015116810190508060081b905060ff603f8360061c1686015116810190508060081b905060ff603f831686015116810190508060e01b905080845260048401935050506119c3565b506003860660018114611a565760028114611a6657611a71565b613d3d60f01b6002830352611a71565b603d60f81b60018303525b508484525050819450505050505b919050565b600081600001549050919050565b611aac828260405180602001604052806000815250611d19565b5050565b611b4a838383604051602401611ac8939291906127bc565b6040516020818303038152906040527f969cdd03000000000000000000000000000000000000000000000000000000007bffffffffffffffffffffffffffffffffffffffffffffffffffffffff19166020820180517bffffffffffffffffffffffffffffffffffffffffffffffffffffffff8381831617835250505050611b4f565b505050565b60008151905060006a636f6e736f6c652e6c6f679050602083016000808483855afa5050505050565b505050565b505050565b6000611ba38473ffffffffffffffffffffffffffffffffffffffff16611d74565b15611d0c578373ffffffffffffffffffffffffffffffffffffffff1663150b7a02611bcc61114a565b8786866040518563ffffffff1660e01b8152600401611bee94939291906126e7565b602060405180830381600087803b158015611c0857600080fd5b505af1925050508015611c3957506040513d601f19601f82011682018060405250810190611c3691906122b5565b60015b611cbc573d8060008114611c69576040519150601f19603f3d011682016040523d82523d6000602084013e611c6e565b606091505b50600081511415611cb4576040517f08c379a0000000000000000000000000000000000000000000000000000000008152600401611cab906127fa565b60405180910390fd5b805181602001fd5b63150b7a0260e01b7bffffffffffffffffffffffffffffffffffffffffffffffffffffffff1916817bffffffffffffffffffffffffffffffffffffffffffffffffffffffff191614915050611d11565b600190505b949350505050565b611d238383611d97565b611d306000848484611b82565b611d6f576040517f08c379a0000000000000000000000000000000000000000000000000000000008152600401611d66906127fa565b60405180910390fd5b505050565b6000808273ffffffffffffffffffffffffffffffffffffffff163b119050919050565b600073ffffffffffffffffffffffffffffffffffffffff168273ffffffffffffffffffffffffffffffffffffffff161415611e07576040517f08c379a0000000000000000000000000000000000000000000000000000000008152600401611dfe9061291a565b60405180910390fd5b611e10816110de565b15611e50576040517f08c379a0000000000000000000000000000000000000000000000000000000008152600401611e479061283a565b60405180910390fd5b611e5c60008383611b78565b6001600360008473ffffffffffffffffffffffffffffffffffffffff1673ffffffffffffffffffffffffffffffffffffffff1681526020019081526020016000206000828254611eac9190612a93565b92505081905550816002600083815260200190815260200160002060006101000a81548173ffffffffffffffffffffffffffffffffffffffff021916908373ffffffffffffffffffffffffffffffffffffffff160217905550808273ffffffffffffffffffffffffffffffffffffffff16600073ffffffffffffffffffffffffffffffffffffffff167fddf252ad1be2c89b69c2b068fc378daa952ba7f163c4a11628f55a4df523b3ef60405160405180910390a4611f6d60008383611b7d565b5050565b828054611f7d90612c5e565b90600052602060002090601f016020900481019282611f9f5760008555611fe6565b82601f10611fb857805160ff1916838001178555611fe6565b82800160010185558215611fe6579182015b82811115611fe5578251825591602001919060010190611fca565b5b509050611ff39190611ff7565b5090565b5b80821115612010576000816000905550600101611ff8565b5090565b600061202761202284612a1f565b6129fa565b90508281526020810184848401111561203f57600080fd5b61204a848285612c1c565b509392505050565b600081359050612061816132d8565b92915050565b600081359050612076816132ef565b92915050565b60008135905061208b81613306565b92915050565b6000815190506120a081613306565b92915050565b600082601f8301126120b757600080fd5b81356120c7848260208601612014565b91505092915050565b6000813590506120df8161331d565b92915050565b6000602082840312156120f757600080fd5b600061210584828501612052565b91505092915050565b6000806040838503121561212157600080fd5b600061212f85828601612052565b925050602061214085828601612052565b9150509250929050565b60008060006060848603121561215f57600080fd5b600061216d86828701612052565b935050602061217e86828701612052565b925050604061218f868287016120d0565b9150509250925092565b600080600080608085870312156121af57600080fd5b60006121bd87828801612052565b94505060206121ce87828801612052565b93505060406121df878288016120d0565b925050606085013567ffffffffffffffff8111156121fc57600080fd5b612208878288016120a6565b91505092959194509250565b6000806040838503121561222757600080fd5b600061223585828601612052565b925050602061224685828601612067565b9150509250929050565b6000806040838503121561226357600080fd5b600061227185828601612052565b9250506020612282858286016120d0565b9150509250929050565b60006020828403121561229e57600080fd5b60006122ac8482850161207c565b91505092915050565b6000602082840312156122c757600080fd5b60006122d584828501612091565b91505092915050565b6000602082840312156122f057600080fd5b60006122fe848285016120d0565b91505092915050565b61231081612ba8565b82525050565b61231f81612bba565b82525050565b600061233082612a50565b61233a8185612a66565b935061234a818560208601612c2b565b61235381612df7565b840191505092915050565b600061236982612a5b565b6123738185612a77565b9350612383818560208601612c2b565b61238c81612df7565b840191505092915050565b60006123a282612a5b565b6123ac8185612a88565b93506123bc818560208601612c2b565b80840191505092915050565b60006123d5600b83612a88565b91506123e082612e08565b600b82019050919050565b60006123f8603283612a77565b915061240382612e31565b604082019050919050565b600061241b602583612a77565b915061242682612e80565b604082019050919050565b600061243e601c83612a77565b915061244982612ecf565b602082019050919050565b6000612461602483612a77565b915061246c82612ef8565b604082019050919050565b6000612484601983612a77565b915061248f82612f47565b602082019050919050565b60006124a7602c83612a77565b91506124b282612f70565b604082019050919050565b60006124ca603883612a77565b91506124d582612fbf565b604082019050919050565b60006124ed602a83612a77565b91506124f88261300e565b604082019050919050565b6000612510602983612a77565b915061251b8261305d565b604082019050919050565b6000612533606283612a88565b915061253e826130ac565b606282019050919050565b6000612556600283612a88565b915061256182613147565b600282019050919050565b6000612579602083612a77565b915061258482613170565b602082019050919050565b600061259c602c83612a77565b91506125a782613199565b604082019050919050565b60006125bf600a83612a88565b91506125ca826131e8565b600a82019050919050565b60006125e2602183612a77565b91506125ed82613211565b604082019050919050565b6000612605601d83612a88565b915061261082613260565b601d82019050919050565b6000612628603183612a77565b915061263382613289565b604082019050919050565b61264781612c12565b82525050565b6000612658826125b2565b91506126648286612397565b915061266f826123c8565b915061267b8285612397565b915061268682612526565b91506126928284612397565b915061269d82612549565b9150819050949350505050565b60006126b5826125f8565b91506126c18284612397565b915081905092915050565b60006020820190506126e16000830184612307565b92915050565b60006080820190506126fc6000830187612307565b6127096020830186612307565b612716604083018561263e565b81810360608301526127288184612325565b905095945050505050565b60006020820190506127486000830184612316565b92915050565b60006020820190508181036000830152612768818461235e565b905092915050565b6000606082019050818103600083015261278a818661235e565b9050818103602083015261279e818561235e565b905081810360408301526127b2818461235e565b9050949350505050565b600060608201905081810360008301526127d6818661235e565b90506127e5602083018561263e565b6127f2604083018461263e565b949350505050565b60006020820190508181036000830152612813816123eb565b9050919050565b600060208201905081810360008301526128338161240e565b9050919050565b6000602082019050818103600083015261285381612431565b9050919050565b6000602082019050818103600083015261287381612454565b9050919050565b6000602082019050818103600083015261289381612477565b9050919050565b600060208201905081810360008301526128b38161249a565b9050919050565b600060208201905081810360008301526128d3816124bd565b9050919050565b600060208201905081810360008301526128f3816124e0565b9050919050565b6000602082019050818103600083015261291381612503565b9050919050565b600060208201905081810360008301526129338161256c565b9050919050565b600060208201905081810360008301526129538161258f565b9050919050565b60006020820190508181036000830152612973816125d5565b9050919050565b600060208201905081810360008301526129938161261b565b9050919050565b60006020820190506129af600083018461263e565b92915050565b60006060820190506129ca600083018661263e565b81810360208301526129dc818561235e565b905081810360408301526129f0818461235e565b9050949350505050565b6000612a04612a15565b9050612a108282612c90565b919050565b6000604051905090565b600067ffffffffffffffff821115612a3a57612a39612dc8565b5b612a4382612df7565b9050602081019050919050565b600081519050919050565b600081519050919050565b600082825260208201905092915050565b600082825260208201905092915050565b600081905092915050565b6000612a9e82612c12565b9150612aa983612c12565b9250827fffffffffffffffffffffffffffffffffffffffffffffffffffffffffffffffff03821115612ade57612add612d3b565b5b828201905092915050565b6000612af482612c12565b9150612aff83612c12565b925082612b0f57612b0e612d6a565b5b828204905092915050565b6000612b2582612c12565b9150612b3083612c12565b9250817fffffffffffffffffffffffffffffffffffffffffffffffffffffffffffffffff0483118215151615612b6957612b68612d3b565b5b828202905092915050565b6000612b7f82612c12565b9150612b8a83612c12565b925082821015612b9d57612b9c612d3b565b5b828203905092915050565b6000612bb382612bf2565b9050919050565b60008115159050919050565b60007fffffffff0000000000000000000000000000000000000000000000000000000082169050919050565b600073ffffffffffffffffffffffffffffffffffffffff82169050919050565b6000819050919050565b82818337600083830152505050565b60005b83811015612c49578082015181840152602081019050612c2e565b83811115612c58576000848401525b50505050565b60006002820490506001821680612c7657607f821691505b60208210811415612c8a57612c89612d99565b5b50919050565b612c9982612df7565b810181811067ffffffffffffffff82111715612cb857612cb7612dc8565b5b80604052505050565b6000612ccc82612c12565b91507fffffffffffffffffffffffffffffffffffffffffffffffffffffffffffffffff821415612cff57612cfe612d3b565b5b600182019050919050565b6000612d1582612c12565b9150612d2083612c12565b925082612d3057612d2f612d6a565b5b828206905092915050565b7f4e487b7100000000000000000000000000000000000000000000000000000000600052601160045260246000fd5b7f4e487b7100000000000000000000000000000000000000000000000000000000600052601260045260246000fd5b7f4e487b7100000000000000000000000000000000000000000000000000000000600052602260045260246000fd5b7f4e487b7100000000000000000000000000000000000000000000000000000000600052604160045260246000fd5b6000601f19601f8301169050919050565b7f202d2d204e465420233a20000000000000000000000000000000000000000000600082015250565b7f4552433732313a207472616e7366657220746f206e6f6e20455243373231526560008201527f63656976657220696d706c656d656e7465720000000000000000000000000000602082015250565b7f4552433732313a207472616e736665722066726f6d20696e636f72726563742060008201527f6f776e6572000000000000000000000000000000000000000000000000000000602082015250565b7f4552433732313a20746f6b656e20616c7265616479206d696e74656400000000600082015250565b7f4552433732313a207472616e7366657220746f20746865207a65726f2061646460008201527f7265737300000000000000000000000000000000000000000000000000000000602082015250565b7f4552433732313a20617070726f766520746f2063616c6c657200000000000000600082015250565b7f4552433732313a206f70657261746f7220717565727920666f72206e6f6e657860008201527f697374656e7420746f6b656e0000000000000000000000000000000000000000602082015250565b7f4552433732313a20617070726f76652063616c6c6572206973206e6f74206f7760008201527f6e6572206e6f7220617070726f76656420666f7220616c6c0000000000000000602082015250565b7f4552433732313a2062616c616e636520717565727920666f7220746865207a6560008201527f726f206164647265737300000000000000000000000000000000000000000000602082015250565b7f4552433732313a206f776e657220717565727920666f72206e6f6e657869737460008201527f656e7420746f6b656e0000000000000000000000000000000000000000000000602082015250565b7f222c20226465736372697074696f6e223a20225468697320697320616e204e4660008201527f542074686174206c6574732070656f706c6520706c617920696e20746865206760208201527f616d65204d657461766572736520536c6179657221222c2022696d616765223a60408201527f2022000000000000000000000000000000000000000000000000000000000000606082015250565b7f227d000000000000000000000000000000000000000000000000000000000000600082015250565b7f4552433732313a206d696e7420746f20746865207a65726f2061646472657373600082015250565b7f4552433732313a20617070726f76656420717565727920666f72206e6f6e657860008201527f697374656e7420746f6b656e0000000000000000000000000000000000000000602082015250565b7f7b226e616d65223a202200000000000000000000000000000000000000000000600082015250565b7f4552433732313a20617070726f76616c20746f2063757272656e74206f776e6560008201527f7200000000000000000000000000000000000000000000000000000000000000602082015250565b7f646174613a6170706c69636174696f6e2f6a736f6e3b6261736536342c000000600082015250565b7f4552433732313a207472616e736665722063616c6c6572206973206e6f74206f60008201527f776e6572206e6f7220617070726f766564000000000000000000000000000000602082015250565b6132e181612ba8565b81146132ec57600080fd5b50565b6132f881612bba565b811461330357600080fd5b50565b61330f81612bc6565b811461331a57600080fd5b50565b61332681612c12565b811461333157600080fd5b5056fe4142434445464748494a4b4c4d4e4f505152535455565758595a6162636465666768696a6b6c6d6e6f707172737475767778797a303132333435363738392b2f4d696e746564204e465420772f20746f6b656e496420257320616e6420636861726163746572496e646578202573a26469706673582212204d15cf056491f29641ba655289af287c81bffa05d17bf7844f2930a5d1d2909764736f6c63430008020033",
  "linkReferences": {},
  "deployedLinkReferences": {}
}